{
  "_format": "hh-sol-artifact-1",
  "contractName": "komatips",
  "sourceName": "contracts/komatips.sol",
  "abi": [
    {
      "inputs": [],
      "stateMutability": "nonpayable",
      "type": "constructor"
    },
    {
      "inputs": [
        {
          "internalType": "string",
          "name": "name",
          "type": "string"
        },
        {
          "internalType": "string",
          "name": "message",
          "type": "string"
        }
      ],
      "name": "buyKomaTips",
      "outputs": [],
      "stateMutability": "payable",
      "type": "function"
    },
    {
      "inputs": [],
      "name": "getMemos",
      "outputs": [
        {
          "components": [
            {
              "internalType": "uint256",
              "name": "value",
              "type": "uint256"
            },
            {
              "internalType": "string",
              "name": "name",
              "type": "string"
            },
            {
              "internalType": "string",
              "name": "message",
              "type": "string"
            },
            {
              "internalType": "uint256",
              "name": "timestamp",
              "type": "uint256"
            },
            {
              "internalType": "address",
              "name": "from",
              "type": "address"
            }
          ],
          "internalType": "struct komatips.Memo[]",
          "name": "",
          "type": "tuple[]"
        }
      ],
      "stateMutability": "view",
      "type": "function"
    }
  ],
  "bytecode": "0x608060405234801561001057600080fd5b5033600160006101000a81548173ffffffffffffffffffffffffffffffffffffffff021916908373ffffffffffffffffffffffffffffffffffffffff160217905550610b88806100616000396000f3fe6080604052600436106100295760003560e01c8063865c51721461002e578063c819b86214610059575b600080fd5b34801561003a57600080fd5b50610043610075565b60405161005091906106b6565b60405180910390f35b610073600480360381019061006e9190610747565b610262565b005b60606000805480602002602001604051908101604052809291908181526020016000905b8282101561025957838290600052602060002090600502016040518060a0016040529081600082015481526020016001820180546100d6906107f7565b80601f0160208091040260200160405190810160405280929190818152602001828054610102906107f7565b801561014f5780601f106101245761010080835404028352916020019161014f565b820191906000526020600020905b81548152906001019060200180831161013257829003601f168201915b50505050508152602001600282018054610168906107f7565b80601f0160208091040260200160405190810160405280929190818152602001828054610194906107f7565b80156101e15780601f106101b6576101008083540402835291602001916101e1565b820191906000526020600020905b8154815290600101906020018083116101c457829003601f168201915b50505050508152602001600382015481526020016004820160009054906101000a900473ffffffffffffffffffffffffffffffffffffffff1673ffffffffffffffffffffffffffffffffffffffff1673ffffffffffffffffffffffffffffffffffffffff168152505081526020019060010190610099565b50505050905090565b600034116102a5576040517f08c379a000000000000000000000000000000000000000000000000000000000815260040161029c90610885565b60405180910390fd5b600160009054906101000a900473ffffffffffffffffffffffffffffffffffffffff1673ffffffffffffffffffffffffffffffffffffffff166108fc349081150290604051600060405180830381858888f1935050505015801561030d573d6000803e3d6000fd5b5060006040518060a0016040528034815260200186868080601f016020809104026020016040519081016040528093929190818152602001838380828437600081840152601f19601f82011690508083019250505050505050815260200184848080601f016020809104026020016040519081016040528093929190818152602001838380828437600081840152601f19601f8201169050808301925050505050505081526020014281526020013373ffffffffffffffffffffffffffffffffffffffff16815250908060018154018082558091505060019003906000526020600020906005020160009091909190915060008201518160000155602082015181600101908161041d9190610a80565b5060408201518160020190816104339190610a80565b506060820151816003015560808201518160040160006101000a81548173ffffffffffffffffffffffffffffffffffffffff021916908373ffffffffffffffffffffffffffffffffffffffff160217905550505050505050565b600081519050919050565b600082825260208201905092915050565b6000819050602082019050919050565b6000819050919050565b6104cc816104b9565b82525050565b600081519050919050565b600082825260208201905092915050565b60005b8381101561050c5780820151818401526020810190506104f1565b60008484015250505050565b6000601f19601f8301169050919050565b6000610534826104d2565b61053e81856104dd565b935061054e8185602086016104ee565b61055781610518565b840191505092915050565b600073ffffffffffffffffffffffffffffffffffffffff82169050919050565b600061058d82610562565b9050919050565b61059d81610582565b82525050565b600060a0830160008301516105bb60008601826104c3565b50602083015184820360208601526105d38282610529565b915050604083015184820360408601526105ed8282610529565b915050606083015161060260608601826104c3565b5060808301516106156080860182610594565b508091505092915050565b600061062c83836105a3565b905092915050565b6000602082019050919050565b600061064c8261048d565b6106568185610498565b935083602082028501610668856104a9565b8060005b858110156106a457848403895281516106858582610620565b945061069083610634565b925060208a0199505060018101905061066c565b50829750879550505050505092915050565b600060208201905081810360008301526106d08184610641565b905092915050565b600080fd5b600080fd5b600080fd5b600080fd5b600080fd5b60008083601f840112610707576107066106e2565b5b8235905067ffffffffffffffff811115610724576107236106e7565b5b6020830191508360018202830111156107405761073f6106ec565b5b9250929050565b60008060008060408587031215610761576107606106d8565b5b600085013567ffffffffffffffff81111561077f5761077e6106dd565b5b61078b878288016106f1565b9450945050602085013567ffffffffffffffff8111156107ae576107ad6106dd565b5b6107ba878288016106f1565b925092505092959194509250565b7f4e487b7100000000000000000000000000000000000000000000000000000000600052602260045260246000fd5b6000600282049050600182168061080f57607f821691505b602082108103610822576108216107c8565b5b50919050565b600082825260208201905092915050565b7f506c6561736520706179206d6f7265207468616e203020657468657200000000600082015250565b600061086f601c83610828565b915061087a82610839565b602082019050919050565b6000602082019050818103600083015261089e81610862565b9050919050565b7f4e487b7100000000000000000000000000000000000000000000000000000000600052604160045260246000fd5b60008190508160005260206000209050919050565b60006020601f8301049050919050565b600082821b905092915050565b6000600883026109367fffffffffffffffffffffffffffffffffffffffffffffffffffffffffffffffff826108f9565b61094086836108f9565b95508019841693508086168417925050509392505050565b6000819050919050565b600061097d610978610973846104b9565b610958565b6104b9565b9050919050565b6000819050919050565b61099783610962565b6109ab6109a382610984565b848454610906565b825550505050565b600090565b6109c06109b3565b6109cb81848461098e565b505050565b5b818110156109ef576109e46000826109b8565b6001810190506109d1565b5050565b601f821115610a3457610a05816108d4565b610a0e846108e9565b81016020851015610a1d578190505b610a31610a29856108e9565b8301826109d0565b50505b505050565b600082821c905092915050565b6000610a5760001984600802610a39565b1980831691505092915050565b6000610a708383610a46565b9150826002028217905092915050565b610a89826104d2565b67ffffffffffffffff811115610aa257610aa16108a5565b5b610aac82546107f7565b610ab78282856109f3565b600060209050601f831160018114610aea5760008415610ad8578287015190505b610ae28582610a64565b865550610b4a565b601f198416610af8866108d4565b60005b82811015610b2057848901518255600182019150602085019450602081019050610afb565b86831015610b3d5784890151610b39601f891682610a46565b8355505b6001600288020188555050505b50505050505056fea2646970667358221220a75bb4c7a480799b65f3fdf4b62560f83375a5d69da17dfea6c986c566bfc59d64736f6c63430008110033",
  "linkReferences": {},
  "deployedLinkReferences": {}
}